{
    "contractName": "A",
    "abi": [
        {
            "inputs": [
                {
                    "internalType": "string",
                    "name": "_name",
                    "type": "string"
                },
                {
                    "internalType": "uint256",
                    "name": "_age",
                    "type": "uint256"
                }
            ],
            "stateMutability": "nonpayable",
            "type": "constructor"
        },
        {
            "inputs": [],
            "name": "age",
            "outputs": [
                {
                    "internalType": "uint256",
                    "name": "",
                    "type": "uint256"
                }
            ],
            "stateMutability": "view",
            "type": "function"
        },
        {
            "inputs": [
                {
                    "internalType": "string",
                    "name": "_name",
                    "type": "string"
                },
                {
                    "internalType": "uint256",
                    "name": "_age",
                    "type": "uint256"
                }
            ],
            "name": "change",
            "outputs": [],
            "stateMutability": "nonpayable",
            "type": "function"
        },
        {
            "inputs": [],
            "name": "name",
            "outputs": [
                {
                    "internalType": "string",
                    "name": "",
                    "type": "string"
                }
            ],
            "stateMutability": "view",
            "type": "function"
        }
    ],
    "bytecode": "608060405234801561001057600080fd5b5060405161064a38038061064a83398101604081905261002f9161005b565b600061003b83826101b3565b5060015550610272565b634e487b7160e01b600052604160045260246000fd5b6000806040838503121561006e57600080fd5b82516001600160401b038082111561008557600080fd5b818501915085601f83011261009957600080fd5b8151818111156100ab576100ab610045565b604051601f8201601f19908116603f011681019083821181831017156100d3576100d3610045565b816040528281526020935088848487010111156100ef57600080fd5b600091505b8282101561011157848201840151818301850152908301906100f4565b6000928101840192909252509401519395939450505050565b600181811c9082168061013e57607f821691505b60208210810361015e57634e487b7160e01b600052602260045260246000fd5b50919050565b601f8211156101ae57600081815260208120601f850160051c8101602086101561018b5750805b601f850160051c820191505b818110156101aa57828155600101610197565b5050505b505050565b81516001600160401b038111156101cc576101cc610045565b6101e0816101da845461012a565b84610164565b602080601f83116001811461021557600084156101fd5750858301515b600019600386901b1c1916600185901b1785556101aa565b600085815260208120601f198616915b8281101561024457888601518255948401946001909101908401610225565b50858210156102625787850151600019600388901b60f8161c191681555b5050505050600190811b01905550565b6103c9806102816000396000f3fe608060405234801561001057600080fd5b50600436106100415760003560e01c806306fdde0314610046578063262a9dff146100645780636d806b1e1461007b575b600080fd5b61004e610090565b60405161005b9190610131565b60405180910390f35b61006d60015481565b60405190815260200161005b565b61008e610089366004610195565b61011e565b005b6000805461009d9061024a565b80601f01602080910402602001604051908101604052809291908181526020018280546100c99061024a565b80156101165780601f106100eb57610100808354040283529160200191610116565b820191906000526020600020905b8154815290600101906020018083116100f957829003601f168201915b505050505081565b600061012a83826102d3565b5060015550565b600060208083528351808285015260005b8181101561015e57858101830151858201604001528201610142565b506000604082860101526040601f19601f8301168501019250505092915050565b634e487b7160e01b600052604160045260246000fd5b600080604083850312156101a857600080fd5b823567ffffffffffffffff808211156101c057600080fd5b818501915085601f8301126101d457600080fd5b8135818111156101e6576101e661017f565b604051601f8201601f19908116603f0116810190838211818310171561020e5761020e61017f565b8160405282815288602084870101111561022757600080fd5b826020860160208301376000602093820184015298969091013596505050505050565b600181811c9082168061025e57607f821691505b60208210810361027e57634e487b7160e01b600052602260045260246000fd5b50919050565b601f8211156102ce57600081815260208120601f850160051c810160208610156102ab5750805b601f850160051c820191505b818110156102ca578281556001016102b7565b5050505b505050565b815167ffffffffffffffff8111156102ed576102ed61017f565b610301816102fb845461024a565b84610284565b602080601f831160018114610336576000841561031e5750858301515b600019600386901b1c1916600185901b1785556102ca565b600085815260208120601f198616915b8281101561036557888601518255948401946001909101908401610346565b50858210156103835787850151600019600388901b60f8161c191681555b5050505050600190811b0190555056fea2646970667358221220db142aeb7243806985c5605a802dda7b2c21c858287ba98506d80d2623b6c82e64736f6c63430008110033",
    "sourcePath": "/Users/anhyeonsu/Documents/web/SOLIDITY_example/lec9.sol",
    "compiler": {
        "name": "solc",
        "version": "0.8.17+commit.8df45f5f"
    },
    "functionHashes": {
        "age()": "262a9dff",
        "change(string,uint256)": "6d806b1e",
        "name()": "06fdde03"
    },
    "gasEstimates": {
        "creation": {
            "codeDepositCost": "193800",
            "executionCost": "infinite",
            "totalCost": "infinite"
        },
        "external": {
            "age()": "2295",
            "change(string,uint256)": "infinite",
            "name()": "infinite"
        }
    }
}