{
    "contractName": "B",
    "abi": [
        {
            "inputs": [
                {
                    "internalType": "string",
                    "name": "_name",
                    "type": "string"
                },
                {
                    "internalType": "uint256",
                    "name": "_age",
                    "type": "uint256"
                }
            ],
            "name": "change",
            "outputs": [],
            "stateMutability": "nonpayable",
            "type": "function"
        },
        {
            "inputs": [],
            "name": "get",
            "outputs": [
                {
                    "internalType": "string",
                    "name": "",
                    "type": "string"
                },
                {
                    "internalType": "uint256",
                    "name": "",
                    "type": "uint256"
                }
            ],
            "stateMutability": "view",
            "type": "function"
        }
    ],
    "bytecode": "6080604052603460405161001290610085565b604080825260059082015264416c69636560d81b60608201526020810191909152608001604051809103906000f080158015610052573d6000803e3d6000fd5b50600080546001600160a01b0319166001600160a01b039290921691909117905534801561007f57600080fd5b50610092565b61064a8061047e83390190565b6103dd806100a16000396000f3fe608060405234801561001057600080fd5b50600436106100365760003560e01c80636d4ce63c1461003b5780636d806b1e1461005a575b600080fd5b61004361006f565b6040516100519291906101eb565b60405180910390f35b61006d610068366004610295565b61015f565b005b60008054604080516306fdde0360e01b81529051606093926001600160a01b0316916306fdde0391600480830192869291908290030181865afa1580156100ba573d6000803e3d6000fd5b505050506040513d6000823e601f3d908101601f191682016040526100e29190810190610317565b60008054906101000a90046001600160a01b03166001600160a01b031663262a9dff6040518163ffffffff1660e01b8152600401602060405180830381865afa158015610133573d6000803e3d6000fd5b505050506040513d601f19601f82011682018060405250810190610157919061038e565b915091509091565b6000546040516336c0358f60e11b81526001600160a01b0390911690636d806b1e9061019190859085906004016101eb565b600060405180830381600087803b1580156101ab57600080fd5b505af11580156101bf573d6000803e3d6000fd5b505050505050565b60005b838110156101e25781810151838201526020016101ca565b50506000910152565b604081526000835180604084015261020a8160608501602088016101c7565b602083019390935250601f91909101601f191601606001919050565b634e487b7160e01b600052604160045260246000fd5b604051601f8201601f1916810167ffffffffffffffff8111828210171561026557610265610226565b604052919050565b600067ffffffffffffffff82111561028757610287610226565b50601f01601f191660200190565b600080604083850312156102a857600080fd5b823567ffffffffffffffff8111156102bf57600080fd5b8301601f810185136102d057600080fd5b80356102e36102de8261026d565b61023c565b8181528660208385010111156102f857600080fd5b8160208401602083013760006020928201830152969401359450505050565b60006020828403121561032957600080fd5b815167ffffffffffffffff81111561034057600080fd5b8201601f8101841361035157600080fd5b805161035f6102de8261026d565b81815285602083850101111561037457600080fd5b6103858260208301602086016101c7565b95945050505050565b6000602082840312156103a057600080fd5b505191905056fea2646970667358221220d84c772e8c0009c32937c81f9e2ae8bb8aa8f0622d65faaf61b29a0bed16b1c464736f6c63430008110033608060405234801561001057600080fd5b5060405161064a38038061064a83398101604081905261002f9161005b565b600061003b83826101b3565b5060015550610272565b634e487b7160e01b600052604160045260246000fd5b6000806040838503121561006e57600080fd5b82516001600160401b038082111561008557600080fd5b818501915085601f83011261009957600080fd5b8151818111156100ab576100ab610045565b604051601f8201601f19908116603f011681019083821181831017156100d3576100d3610045565b816040528281526020935088848487010111156100ef57600080fd5b600091505b8282101561011157848201840151818301850152908301906100f4565b6000928101840192909252509401519395939450505050565b600181811c9082168061013e57607f821691505b60208210810361015e57634e487b7160e01b600052602260045260246000fd5b50919050565b601f8211156101ae57600081815260208120601f850160051c8101602086101561018b5750805b601f850160051c820191505b818110156101aa57828155600101610197565b5050505b505050565b81516001600160401b038111156101cc576101cc610045565b6101e0816101da845461012a565b84610164565b602080601f83116001811461021557600084156101fd5750858301515b600019600386901b1c1916600185901b1785556101aa565b600085815260208120601f198616915b8281101561024457888601518255948401946001909101908401610225565b50858210156102625787850151600019600388901b60f8161c191681555b5050505050600190811b01905550565b6103c9806102816000396000f3fe608060405234801561001057600080fd5b50600436106100415760003560e01c806306fdde0314610046578063262a9dff146100645780636d806b1e1461007b575b600080fd5b61004e610090565b60405161005b9190610131565b60405180910390f35b61006d60015481565b60405190815260200161005b565b61008e610089366004610195565b61011e565b005b6000805461009d9061024a565b80601f01602080910402602001604051908101604052809291908181526020018280546100c99061024a565b80156101165780601f106100eb57610100808354040283529160200191610116565b820191906000526020600020905b8154815290600101906020018083116100f957829003601f168201915b505050505081565b600061012a83826102d3565b5060015550565b600060208083528351808285015260005b8181101561015e57858101830151858201604001528201610142565b506000604082860101526040601f19601f8301168501019250505092915050565b634e487b7160e01b600052604160045260246000fd5b600080604083850312156101a857600080fd5b823567ffffffffffffffff808211156101c057600080fd5b818501915085601f8301126101d457600080fd5b8135818111156101e6576101e661017f565b604051601f8201601f19908116603f0116810190838211818310171561020e5761020e61017f565b8160405282815288602084870101111561022757600080fd5b826020860160208301376000602093820184015298969091013596505050505050565b600181811c9082168061025e57607f821691505b60208210810361027e57634e487b7160e01b600052602260045260246000fd5b50919050565b601f8211156102ce57600081815260208120601f850160051c810160208610156102ab5750805b601f850160051c820191505b818110156102ca578281556001016102b7565b5050505b505050565b815167ffffffffffffffff8111156102ed576102ed61017f565b610301816102fb845461024a565b84610284565b602080601f831160018114610336576000841561031e5750858301515b600019600386901b1c1916600185901b1785556102ca565b600085815260208120601f198616915b8281101561036557888601518255948401946001909101908401610346565b50858210156103835787850151600019600388901b60f8161c191681555b5050505050600190811b0190555056fea2646970667358221220db142aeb7243806985c5605a802dda7b2c21c858287ba98506d80d2623b6c82e64736f6c63430008110033",
    "sourcePath": "/Users/anhyeonsu/Documents/web/SOLIDITY_example/lec9.sol",
    "compiler": {
        "name": "solc",
        "version": "0.8.17+commit.8df45f5f"
    },
    "functionHashes": {
        "change(string,uint256)": "6d806b1e",
        "get()": "6d4ce63c"
    },
    "gasEstimates": {
        "creation": {
            "codeDepositCost": "197800",
            "executionCost": "infinite",
            "totalCost": "infinite"
        },
        "external": {
            "change(string,uint256)": "infinite",
            "get()": "infinite"
        }
    }
}