{
    "contractName": "Father",
    "abi": [
        {
            "inputs": [],
            "name": "fatherMoney",
            "outputs": [
                {
                    "internalType": "uint256",
                    "name": "",
                    "type": "uint256"
                }
            ],
            "stateMutability": "view",
            "type": "function"
        },
        {
            "inputs": [],
            "name": "getFatherName",
            "outputs": [
                {
                    "internalType": "string",
                    "name": "",
                    "type": "string"
                }
            ],
            "stateMutability": "pure",
            "type": "function"
        },
        {
            "inputs": [],
            "name": "getMoney",
            "outputs": [
                {
                    "internalType": "uint256",
                    "name": "",
                    "type": "uint256"
                }
            ],
            "stateMutability": "view",
            "type": "function"
        }
    ],
    "bytecode": "6080604052606460005534801561001557600080fd5b5061010c806100256000396000f3fe6080604052348015600f57600080fd5b5060043610603c5760003560e01c80634fa4329d14604157806398e1b410146071578063d5312f35146082575b600080fd5b60408051808201825260078152664b696d4a756e6760c81b6020820152905160689190608a565b60405180910390f35b6000545b6040519081526020016068565b607560005481565b600060208083528351808285015260005b8181101560b557858101830151858201604001528201609b565b506000604082860101526040601f19601f830116850101925050509291505056fea2646970667358221220aeace8e10a0b298e30e7633e1b3f5e51005360be64cc986b819fc13ac8e0d4c164736f6c63430008110033",
    "sourcePath": "/Users/anhyeonsu/Documents/web/SOLIDITY_example/lec12.sol",
    "compiler": {
        "name": "solc",
        "version": "0.8.17+commit.8df45f5f"
    },
    "functionHashes": {
        "fatherMoney()": "d5312f35",
        "getFatherName()": "4fa4329d",
        "getMoney()": "98e1b410"
    },
    "gasEstimates": {
        "creation": {
            "codeDepositCost": "53600",
            "executionCost": "22211",
            "totalCost": "75811"
        },
        "external": {
            "fatherMoney()": "2317",
            "getFatherName()": "infinite",
            "getMoney()": "2281"
        }
    }
}