{
    "contractName": "Mother",
    "abi": [
        {
            "inputs": [],
            "name": "getMoney",
            "outputs": [
                {
                    "internalType": "uint256",
                    "name": "",
                    "type": "uint256"
                }
            ],
            "stateMutability": "view",
            "type": "function"
        },
        {
            "inputs": [],
            "name": "getMotherName",
            "outputs": [
                {
                    "internalType": "string",
                    "name": "",
                    "type": "string"
                }
            ],
            "stateMutability": "pure",
            "type": "function"
        },
        {
            "inputs": [],
            "name": "motherMoney",
            "outputs": [
                {
                    "internalType": "uint256",
                    "name": "",
                    "type": "uint256"
                }
            ],
            "stateMutability": "view",
            "type": "function"
        }
    ],
    "bytecode": "60806040526101f460005534801561001657600080fd5b5061010e806100266000396000f3fe6080604052348015600f57600080fd5b5060043610603c5760003560e01c80633847798814604157806395b386d114607057806398e1b410146085575b600080fd5b60408051808201825260068152651319595cdbdb60d21b6020820152905160679190608c565b60405180910390f35b607860005481565b6040519081526020016067565b6000546078565b600060208083528351808285015260005b8181101560b757858101830151858201604001528201609d565b506000604082860101526040601f19601f830116850101925050509291505056fea2646970667358221220ae97cb843c5d8268ed7fd37ad9e19d0413bcfa0584bbe2b0bb943da5c114692e64736f6c63430008110033",
    "sourcePath": "/Users/anhyeonsu/Documents/web/SOLIDITY_example/lec12.sol",
    "compiler": {
        "name": "solc",
        "version": "0.8.17+commit.8df45f5f"
    },
    "functionHashes": {
        "getMoney()": "98e1b410",
        "getMotherName()": "38477988",
        "motherMoney()": "95b386d1"
    },
    "gasEstimates": {
        "creation": {
            "codeDepositCost": "54000",
            "executionCost": "22211",
            "totalCost": "76211"
        },
        "external": {
            "getMoney()": "2314",
            "getMotherName()": "infinite",
            "motherMoney()": "2295"
        }
    }
}