{
    "contractName": "Son",
    "abi": [
        {
            "inputs": [],
            "name": "fatherMoney",
            "outputs": [
                {
                    "internalType": "uint256",
                    "name": "",
                    "type": "uint256"
                }
            ],
            "stateMutability": "view",
            "type": "function"
        },
        {
            "inputs": [],
            "name": "getFatherName",
            "outputs": [
                {
                    "internalType": "string",
                    "name": "",
                    "type": "string"
                }
            ],
            "stateMutability": "pure",
            "type": "function"
        },
        {
            "inputs": [],
            "name": "getMoney",
            "outputs": [
                {
                    "internalType": "uint256",
                    "name": "",
                    "type": "uint256"
                }
            ],
            "stateMutability": "view",
            "type": "function"
        },
        {
            "inputs": [],
            "name": "getMotherName",
            "outputs": [
                {
                    "internalType": "string",
                    "name": "",
                    "type": "string"
                }
            ],
            "stateMutability": "pure",
            "type": "function"
        },
        {
            "inputs": [],
            "name": "motherMoney",
            "outputs": [
                {
                    "internalType": "uint256",
                    "name": "",
                    "type": "uint256"
                }
            ],
            "stateMutability": "view",
            "type": "function"
        }
    ],
    "bytecode": "608060405260646000556101f460015534801561001b57600080fd5b5061019d8061002b6000396000f3fe608060405234801561001057600080fd5b50600436106100575760003560e01c8063384779881461005c5780634fa4329d1461009057806395b386d1146100b357806398e1b410146100ca578063d5312f35146100d2575b600080fd5b6040805180820190915260068152651319595cdbdb60d21b60208201525b60405161008791906100f2565b60405180910390f35b6040805180820190915260078152664b696d4a756e6760c81b602082015261007a565b6100bc60015481565b604051908152602001610087565b6100bc6100db565b6100bc60005481565b60006001546000546100ed9190610140565b905090565b600060208083528351808285015260005b8181101561011f57858101830151858201604001528201610103565b506000604082860101526040601f19601f8301168501019250505092915050565b8082018082111561016157634e487b7160e01b600052601160045260246000fd5b9291505056fea2646970667358221220dd48390bcfcf29abe55b5512f07e26e976e00789d6c69df4d4b793007a37faa864736f6c63430008110033",
    "sourcePath": "/Users/anhyeonsu/Documents/web/SOLIDITY_example/lec12.sol",
    "compiler": {
        "name": "solc",
        "version": "0.8.17+commit.8df45f5f"
    },
    "functionHashes": {
        "fatherMoney()": "d5312f35",
        "getFatherName()": "4fa4329d",
        "getMoney()": "98e1b410",
        "getMotherName()": "38477988",
        "motherMoney()": "95b386d1"
    },
    "gasEstimates": {
        "creation": {
            "codeDepositCost": "82600",
            "executionCost": "44341",
            "totalCost": "126941"
        },
        "external": {
            "fatherMoney()": "2361",
            "getFatherName()": "infinite",
            "getMoney()": "4537",
            "getMotherName()": "infinite",
            "motherMoney()": "2317"
        }
    }
}