{
	"lec12.sol": {
		"Son": {
			"abi": [
				{
					"inputs": [],
					"name": "fatherMoney",
					"outputs": [
						{
							"internalType": "uint256",
							"name": "",
							"type": "uint256"
						}
					],
					"stateMutability": "view",
					"type": "function"
				},
				{
					"inputs": [],
					"name": "getFatherName",
					"outputs": [
						{
							"internalType": "string",
							"name": "",
							"type": "string"
						}
					],
					"stateMutability": "pure",
					"type": "function"
				},
				{
					"inputs": [],
					"name": "getMoney",
					"outputs": [
						{
							"internalType": "uint256",
							"name": "",
							"type": "uint256"
						}
					],
					"stateMutability": "view",
					"type": "function"
				},
				{
					"inputs": [],
					"name": "getMotherName",
					"outputs": [
						{
							"internalType": "string",
							"name": "",
							"type": "string"
						}
					],
					"stateMutability": "pure",
					"type": "function"
				},
				{
					"inputs": [],
					"name": "motherMoney",
					"outputs": [
						{
							"internalType": "uint256",
							"name": "",
							"type": "uint256"
						}
					],
					"stateMutability": "view",
					"type": "function"
				}
			],
			"devdoc": {
				"kind": "dev",
				"methods": {},
				"version": 1
			},
			"evm": {
				"assembly": "    /* \"lec12.sol\":583:742  contract Son is Father, Mother {... */\n  mstore(0x40, 0x80)\n    /* \"lec12.sol\":120:123  100 */\n  0x64\n    /* \"lec12.sol\":91:123  uint256 public fatherMoney = 100 */\n  0x00\n  sstore\n    /* \"lec12.sol\":381:384  500 */\n  0x01f4\n    /* \"lec12.sol\":352:384  uint256 public motherMoney = 500 */\n  0x01\n  sstore\n    /* \"lec12.sol\":583:742  contract Son is Father, Mother {... */\n  callvalue\n  dup1\n  iszero\n  tag_1\n  jumpi\n  0x00\n  dup1\n  revert\ntag_1:\n  pop\n  dataSize(sub_0)\n  dup1\n  dataOffset(sub_0)\n  0x00\n  codecopy\n  0x00\n  return\nstop\n\nsub_0: assembly {\n        /* \"lec12.sol\":583:742  contract Son is Father, Mother {... */\n      mstore(0x40, 0x80)\n      callvalue\n      dup1\n      iszero\n      tag_1\n      jumpi\n      0x00\n      dup1\n      revert\n    tag_1:\n      pop\n      jumpi(tag_2, lt(calldatasize, 0x04))\n      shr(0xe0, calldataload(0x00))\n      dup1\n      0x38477988\n      eq\n      tag_3\n      jumpi\n      dup1\n      0x4fa4329d\n      eq\n      tag_4\n      jumpi\n      dup1\n      0x95b386d1\n      eq\n      tag_5\n      jumpi\n      dup1\n      0x98e1b410\n      eq\n      tag_6\n      jumpi\n      dup1\n      0xd5312f35\n      eq\n      tag_7\n      jumpi\n    tag_2:\n      0x00\n      dup1\n      revert\n        /* \"lec12.sol\":390:482  function getMotherName() public  pure returns(string memory){... */\n    tag_3:\n      tag_8\n      tag_9\n      jump\t// in\n    tag_8:\n      mload(0x40)\n      tag_10\n      swap2\n      swap1\n      tag_11\n      jump\t// in\n    tag_10:\n      mload(0x40)\n      dup1\n      swap2\n      sub\n      swap1\n      return\n        /* \"lec12.sol\":129:221  function getFatherName() public pure returns(string memory){... */\n    tag_4:\n      tag_12\n      tag_13\n      jump\t// in\n    tag_12:\n      mload(0x40)\n      tag_14\n      swap2\n      swap1\n      tag_11\n      jump\t// in\n    tag_14:\n      mload(0x40)\n      dup1\n      swap2\n      sub\n      swap1\n      return\n        /* \"lec12.sol\":352:384  uint256 public motherMoney = 500 */\n    tag_5:\n      tag_15\n      tag_16\n      jump\t// in\n    tag_15:\n      mload(0x40)\n      tag_17\n      swap2\n      swap1\n      tag_18\n      jump\t// in\n    tag_17:\n      mload(0x40)\n      dup1\n      swap2\n      sub\n      swap1\n      return\n        /* \"lec12.sol\":621:740  function getMoney() public view override(Father,Mother) returns(uint256){... */\n    tag_6:\n      tag_19\n      tag_20\n      jump\t// in\n    tag_19:\n      mload(0x40)\n      tag_21\n      swap2\n      swap1\n      tag_18\n      jump\t// in\n    tag_21:\n      mload(0x40)\n      dup1\n      swap2\n      sub\n      swap1\n      return\n        /* \"lec12.sol\":91:123  uint256 public fatherMoney = 100 */\n    tag_7:\n      tag_22\n      tag_23\n      jump\t// in\n    tag_22:\n      mload(0x40)\n      tag_24\n      swap2\n      swap1\n      tag_18\n      jump\t// in\n    tag_24:\n      mload(0x40)\n      dup1\n      swap2\n      sub\n      swap1\n      return\n        /* \"lec12.sol\":390:482  function getMotherName() public  pure returns(string memory){... */\n    tag_9:\n        /* \"lec12.sol\":436:449  string memory */\n      0x60\n        /* \"lec12.sol\":460:475  return \"Leesol\" */\n      mload(0x40)\n      dup1\n      0x40\n      add\n      0x40\n      mstore\n      dup1\n      0x06\n      dup2\n      mstore\n      0x20\n      add\n      0x4c6565736f6c0000000000000000000000000000000000000000000000000000\n      dup2\n      mstore\n      pop\n      swap1\n      pop\n        /* \"lec12.sol\":390:482  function getMotherName() public  pure returns(string memory){... */\n      swap1\n      jump\t// out\n        /* \"lec12.sol\":129:221  function getFatherName() public pure returns(string memory){... */\n    tag_13:\n        /* \"lec12.sol\":174:187  string memory */\n      0x60\n        /* \"lec12.sol\":198:214  return \"KimJung\" */\n      mload(0x40)\n      dup1\n      0x40\n      add\n      0x40\n      mstore\n      dup1\n      0x07\n      dup2\n      mstore\n      0x20\n      add\n      0x4b696d4a756e6700000000000000000000000000000000000000000000000000\n      dup2\n      mstore\n      pop\n      swap1\n      pop\n        /* \"lec12.sol\":129:221  function getFatherName() public pure returns(string memory){... */\n      swap1\n      jump\t// out\n        /* \"lec12.sol\":352:384  uint256 public motherMoney = 500 */\n    tag_16:\n      sload(0x01)\n      dup2\n      jump\t// out\n        /* \"lec12.sol\":621:740  function getMoney() public view override(Father,Mother) returns(uint256){... */\n    tag_20:\n        /* \"lec12.sol\":685:692  uint256 */\n      0x00\n        /* \"lec12.sol\":722:733  motherMoney */\n      sload(0x01)\n        /* \"lec12.sol\":710:721  fatherMoney */\n      sload(0x00)\n        /* \"lec12.sol\":710:733  fatherMoney+motherMoney */\n      tag_28\n      swap2\n      swap1\n      tag_29\n      jump\t// in\n    tag_28:\n        /* \"lec12.sol\":703:733  return fatherMoney+motherMoney */\n      swap1\n      pop\n        /* \"lec12.sol\":621:740  function getMoney() public view override(Father,Mother) returns(uint256){... */\n      swap1\n      jump\t// out\n        /* \"lec12.sol\":91:123  uint256 public fatherMoney = 100 */\n    tag_23:\n      sload(0x00)\n      dup2\n      jump\t// out\n        /* \"#utility.yul\":7:371   */\n    tag_31:\n        /* \"#utility.yul\":95:98   */\n      0x00\n        /* \"#utility.yul\":123:162   */\n      tag_33\n        /* \"#utility.yul\":156:161   */\n      dup3\n        /* \"#utility.yul\":123:162   */\n      tag_34\n      jump\t// in\n    tag_33:\n        /* \"#utility.yul\":178:249   */\n      tag_35\n        /* \"#utility.yul\":242:248   */\n      dup2\n        /* \"#utility.yul\":237:240   */\n      dup6\n        /* \"#utility.yul\":178:249   */\n      tag_36\n      jump\t// in\n    tag_35:\n        /* \"#utility.yul\":171:249   */\n      swap4\n      pop\n        /* \"#utility.yul\":258:310   */\n      tag_37\n        /* \"#utility.yul\":303:309   */\n      dup2\n        /* \"#utility.yul\":298:301   */\n      dup6\n        /* \"#utility.yul\":291:295   */\n      0x20\n        /* \"#utility.yul\":284:289   */\n      dup7\n        /* \"#utility.yul\":280:296   */\n      add\n        /* \"#utility.yul\":258:310   */\n      tag_38\n      jump\t// in\n    tag_37:\n        /* \"#utility.yul\":335:364   */\n      tag_39\n        /* \"#utility.yul\":357:363   */\n      dup2\n        /* \"#utility.yul\":335:364   */\n      tag_40\n      jump\t// in\n    tag_39:\n        /* \"#utility.yul\":330:333   */\n      dup5\n        /* \"#utility.yul\":326:365   */\n      add\n        /* \"#utility.yul\":319:365   */\n      swap2\n      pop\n        /* \"#utility.yul\":99:371   */\n      pop\n        /* \"#utility.yul\":7:371   */\n      swap3\n      swap2\n      pop\n      pop\n      jump\t// out\n        /* \"#utility.yul\":377:495   */\n    tag_41:\n        /* \"#utility.yul\":464:488   */\n      tag_43\n        /* \"#utility.yul\":482:487   */\n      dup2\n        /* \"#utility.yul\":464:488   */\n      tag_44\n      jump\t// in\n    tag_43:\n        /* \"#utility.yul\":459:462   */\n      dup3\n        /* \"#utility.yul\":452:489   */\n      mstore\n        /* \"#utility.yul\":377:495   */\n      pop\n      pop\n      jump\t// out\n        /* \"#utility.yul\":501:814   */\n    tag_11:\n        /* \"#utility.yul\":614:618   */\n      0x00\n        /* \"#utility.yul\":652:654   */\n      0x20\n        /* \"#utility.yul\":641:650   */\n      dup3\n        /* \"#utility.yul\":637:655   */\n      add\n        /* \"#utility.yul\":629:655   */\n      swap1\n      pop\n        /* \"#utility.yul\":701:710   */\n      dup2\n        /* \"#utility.yul\":695:699   */\n      dup2\n        /* \"#utility.yul\":691:711   */\n      sub\n        /* \"#utility.yul\":687:688   */\n      0x00\n        /* \"#utility.yul\":676:685   */\n      dup4\n        /* \"#utility.yul\":672:689   */\n      add\n        /* \"#utility.yul\":665:712   */\n      mstore\n        /* \"#utility.yul\":729:807   */\n      tag_46\n        /* \"#utility.yul\":802:806   */\n      dup2\n        /* \"#utility.yul\":793:799   */\n      dup5\n        /* \"#utility.yul\":729:807   */\n      tag_31\n      jump\t// in\n    tag_46:\n        /* \"#utility.yul\":721:807   */\n      swap1\n      pop\n        /* \"#utility.yul\":501:814   */\n      swap3\n      swap2\n      pop\n      pop\n      jump\t// out\n        /* \"#utility.yul\":820:1042   */\n    tag_18:\n        /* \"#utility.yul\":913:917   */\n      0x00\n        /* \"#utility.yul\":951:953   */\n      0x20\n        /* \"#utility.yul\":940:949   */\n      dup3\n        /* \"#utility.yul\":936:954   */\n      add\n        /* \"#utility.yul\":928:954   */\n      swap1\n      pop\n        /* \"#utility.yul\":964:1035   */\n      tag_48\n        /* \"#utility.yul\":1032:1033   */\n      0x00\n        /* \"#utility.yul\":1021:1030   */\n      dup4\n        /* \"#utility.yul\":1017:1034   */\n      add\n        /* \"#utility.yul\":1008:1014   */\n      dup5\n        /* \"#utility.yul\":964:1035   */\n      tag_41\n      jump\t// in\n    tag_48:\n        /* \"#utility.yul\":820:1042   */\n      swap3\n      swap2\n      pop\n      pop\n      jump\t// out\n        /* \"#utility.yul\":1048:1147   */\n    tag_34:\n        /* \"#utility.yul\":1100:1106   */\n      0x00\n        /* \"#utility.yul\":1134:1139   */\n      dup2\n        /* \"#utility.yul\":1128:1140   */\n      mload\n        /* \"#utility.yul\":1118:1140   */\n      swap1\n      pop\n        /* \"#utility.yul\":1048:1147   */\n      swap2\n      swap1\n      pop\n      jump\t// out\n        /* \"#utility.yul\":1153:1322   */\n    tag_36:\n        /* \"#utility.yul\":1237:1248   */\n      0x00\n        /* \"#utility.yul\":1271:1277   */\n      dup3\n        /* \"#utility.yul\":1266:1269   */\n      dup3\n        /* \"#utility.yul\":1259:1278   */\n      mstore\n        /* \"#utility.yul\":1311:1315   */\n      0x20\n        /* \"#utility.yul\":1306:1309   */\n      dup3\n        /* \"#utility.yul\":1302:1316   */\n      add\n        /* \"#utility.yul\":1287:1316   */\n      swap1\n      pop\n        /* \"#utility.yul\":1153:1322   */\n      swap3\n      swap2\n      pop\n      pop\n      jump\t// out\n        /* \"#utility.yul\":1328:1633   */\n    tag_29:\n        /* \"#utility.yul\":1368:1371   */\n      0x00\n        /* \"#utility.yul\":1387:1407   */\n      tag_52\n        /* \"#utility.yul\":1405:1406   */\n      dup3\n        /* \"#utility.yul\":1387:1407   */\n      tag_44\n      jump\t// in\n    tag_52:\n        /* \"#utility.yul\":1382:1407   */\n      swap2\n      pop\n        /* \"#utility.yul\":1421:1441   */\n      tag_53\n        /* \"#utility.yul\":1439:1440   */\n      dup4\n        /* \"#utility.yul\":1421:1441   */\n      tag_44\n      jump\t// in\n    tag_53:\n        /* \"#utility.yul\":1416:1441   */\n      swap3\n      pop\n        /* \"#utility.yul\":1575:1576   */\n      dup3\n        /* \"#utility.yul\":1507:1573   */\n      0xffffffffffffffffffffffffffffffffffffffffffffffffffffffffffffffff\n        /* \"#utility.yul\":1503:1577   */\n      sub\n        /* \"#utility.yul\":1500:1501   */\n      dup3\n        /* \"#utility.yul\":1497:1578   */\n      gt\n        /* \"#utility.yul\":1494:1601   */\n      iszero\n      tag_54\n      jumpi\n        /* \"#utility.yul\":1581:1599   */\n      tag_55\n      tag_56\n      jump\t// in\n    tag_55:\n        /* \"#utility.yul\":1494:1601   */\n    tag_54:\n        /* \"#utility.yul\":1625:1626   */\n      dup3\n        /* \"#utility.yul\":1622:1623   */\n      dup3\n        /* \"#utility.yul\":1618:1627   */\n      add\n        /* \"#utility.yul\":1611:1627   */\n      swap1\n      pop\n        /* \"#utility.yul\":1328:1633   */\n      swap3\n      swap2\n      pop\n      pop\n      jump\t// out\n        /* \"#utility.yul\":1639:1716   */\n    tag_44:\n        /* \"#utility.yul\":1676:1683   */\n      0x00\n        /* \"#utility.yul\":1705:1710   */\n      dup2\n        /* \"#utility.yul\":1694:1710   */\n      swap1\n      pop\n        /* \"#utility.yul\":1639:1716   */\n      swap2\n      swap1\n      pop\n      jump\t// out\n        /* \"#utility.yul\":1722:2029   */\n    tag_38:\n        /* \"#utility.yul\":1790:1791   */\n      0x00\n        /* \"#utility.yul\":1800:1913   */\n    tag_59:\n        /* \"#utility.yul\":1814:1820   */\n      dup4\n        /* \"#utility.yul\":1811:1812   */\n      dup2\n        /* \"#utility.yul\":1808:1821   */\n      lt\n        /* \"#utility.yul\":1800:1913   */\n      iszero\n      tag_61\n      jumpi\n        /* \"#utility.yul\":1899:1900   */\n      dup1\n        /* \"#utility.yul\":1894:1897   */\n      dup3\n        /* \"#utility.yul\":1890:1901   */\n      add\n        /* \"#utility.yul\":1884:1902   */\n      mload\n        /* \"#utility.yul\":1880:1881   */\n      dup2\n        /* \"#utility.yul\":1875:1878   */\n      dup5\n        /* \"#utility.yul\":1871:1882   */\n      add\n        /* \"#utility.yul\":1864:1903   */\n      mstore\n        /* \"#utility.yul\":1836:1838   */\n      0x20\n        /* \"#utility.yul\":1833:1834   */\n      dup2\n        /* \"#utility.yul\":1829:1839   */\n      add\n        /* \"#utility.yul\":1824:1839   */\n      swap1\n      pop\n        /* \"#utility.yul\":1800:1913   */\n      jump(tag_59)\n    tag_61:\n        /* \"#utility.yul\":1931:1937   */\n      dup4\n        /* \"#utility.yul\":1928:1929   */\n      dup2\n        /* \"#utility.yul\":1925:1938   */\n      gt\n        /* \"#utility.yul\":1922:2023   */\n      iszero\n      tag_62\n      jumpi\n        /* \"#utility.yul\":2011:2012   */\n      0x00\n        /* \"#utility.yul\":2002:2008   */\n      dup5\n        /* \"#utility.yul\":1997:2000   */\n      dup5\n        /* \"#utility.yul\":1993:2009   */\n      add\n        /* \"#utility.yul\":1986:2013   */\n      mstore\n        /* \"#utility.yul\":1922:2023   */\n    tag_62:\n        /* \"#utility.yul\":1771:2029   */\n      pop\n        /* \"#utility.yul\":1722:2029   */\n      pop\n      pop\n      pop\n      jump\t// out\n        /* \"#utility.yul\":2035:2215   */\n    tag_56:\n        /* \"#utility.yul\":2083:2160   */\n      0x4e487b7100000000000000000000000000000000000000000000000000000000\n        /* \"#utility.yul\":2080:2081   */\n      0x00\n        /* \"#utility.yul\":2073:2161   */\n      mstore\n        /* \"#utility.yul\":2180:2184   */\n      0x11\n        /* \"#utility.yul\":2177:2178   */\n      0x04\n        /* \"#utility.yul\":2170:2185   */\n      mstore\n        /* \"#utility.yul\":2204:2208   */\n      0x24\n        /* \"#utility.yul\":2201:2202   */\n      0x00\n        /* \"#utility.yul\":2194:2209   */\n      revert\n        /* \"#utility.yul\":2221:2323   */\n    tag_40:\n        /* \"#utility.yul\":2262:2268   */\n      0x00\n        /* \"#utility.yul\":2313:2315   */\n      0x1f\n        /* \"#utility.yul\":2309:2316   */\n      not\n        /* \"#utility.yul\":2304:2306   */\n      0x1f\n        /* \"#utility.yul\":2297:2302   */\n      dup4\n        /* \"#utility.yul\":2293:2307   */\n      add\n        /* \"#utility.yul\":2289:2317   */\n      and\n        /* \"#utility.yul\":2279:2317   */\n      swap1\n      pop\n        /* \"#utility.yul\":2221:2323   */\n      swap2\n      swap1\n      pop\n      jump\t// out\n\n    auxdata: 0xa264697066735822122019fcc1e34c3c444b68680199137d67ff7e20aaedabc1e171fc2bcf0491450eec64736f6c63430008070033\n}\n",
				"bytecode": {
					"linkReferences": {},
					"object": "608060405260646000556101f460015534801561001b57600080fd5b506103398061002b6000396000f3fe608060405234801561001057600080fd5b50600436106100575760003560e01c8063384779881461005c5780634fa4329d1461007a57806395b386d11461009857806398e1b410146100b6578063d5312f35146100d4575b600080fd5b6100646100f2565b60405161007191906101d7565b60405180910390f35b61008261012f565b60405161008f91906101d7565b60405180910390f35b6100a061016c565b6040516100ad91906101f9565b60405180910390f35b6100be610172565b6040516100cb91906101f9565b60405180910390f35b6100dc610189565b6040516100e991906101f9565b60405180910390f35b60606040518060400160405280600681526020017f4c6565736f6c0000000000000000000000000000000000000000000000000000815250905090565b60606040518060400160405280600781526020017f4b696d4a756e6700000000000000000000000000000000000000000000000000815250905090565b60015481565b60006001546000546101849190610230565b905090565b60005481565b600061019a82610214565b6101a4818561021f565b93506101b4818560208601610290565b6101bd816102f2565b840191505092915050565b6101d181610286565b82525050565b600060208201905081810360008301526101f1818461018f565b905092915050565b600060208201905061020e60008301846101c8565b92915050565b600081519050919050565b600082825260208201905092915050565b600061023b82610286565b915061024683610286565b9250827fffffffffffffffffffffffffffffffffffffffffffffffffffffffffffffffff0382111561027b5761027a6102c3565b5b828201905092915050565b6000819050919050565b60005b838110156102ae578082015181840152602081019050610293565b838111156102bd576000848401525b50505050565b7f4e487b7100000000000000000000000000000000000000000000000000000000600052601160045260246000fd5b6000601f19601f830116905091905056fea264697066735822122019fcc1e34c3c444b68680199137d67ff7e20aaedabc1e171fc2bcf0491450eec64736f6c63430008070033",
					"opcodes": "PUSH1 0x80 PUSH1 0x40 MSTORE PUSH1 0x64 PUSH1 0x0 SSTORE PUSH2 0x1F4 PUSH1 0x1 SSTORE CALLVALUE DUP1 ISZERO PUSH2 0x1B JUMPI PUSH1 0x0 DUP1 REVERT JUMPDEST POP PUSH2 0x339 DUP1 PUSH2 0x2B PUSH1 0x0 CODECOPY PUSH1 0x0 RETURN INVALID PUSH1 0x80 PUSH1 0x40 MSTORE CALLVALUE DUP1 ISZERO PUSH2 0x10 JUMPI PUSH1 0x0 DUP1 REVERT JUMPDEST POP PUSH1 0x4 CALLDATASIZE LT PUSH2 0x57 JUMPI PUSH1 0x0 CALLDATALOAD PUSH1 0xE0 SHR DUP1 PUSH4 0x38477988 EQ PUSH2 0x5C JUMPI DUP1 PUSH4 0x4FA4329D EQ PUSH2 0x7A JUMPI DUP1 PUSH4 0x95B386D1 EQ PUSH2 0x98 JUMPI DUP1 PUSH4 0x98E1B410 EQ PUSH2 0xB6 JUMPI DUP1 PUSH4 0xD5312F35 EQ PUSH2 0xD4 JUMPI JUMPDEST PUSH1 0x0 DUP1 REVERT JUMPDEST PUSH2 0x64 PUSH2 0xF2 JUMP JUMPDEST PUSH1 0x40 MLOAD PUSH2 0x71 SWAP2 SWAP1 PUSH2 0x1D7 JUMP JUMPDEST PUSH1 0x40 MLOAD DUP1 SWAP2 SUB SWAP1 RETURN JUMPDEST PUSH2 0x82 PUSH2 0x12F JUMP JUMPDEST PUSH1 0x40 MLOAD PUSH2 0x8F SWAP2 SWAP1 PUSH2 0x1D7 JUMP JUMPDEST PUSH1 0x40 MLOAD DUP1 SWAP2 SUB SWAP1 RETURN JUMPDEST PUSH2 0xA0 PUSH2 0x16C JUMP JUMPDEST PUSH1 0x40 MLOAD PUSH2 0xAD SWAP2 SWAP1 PUSH2 0x1F9 JUMP JUMPDEST PUSH1 0x40 MLOAD DUP1 SWAP2 SUB SWAP1 RETURN JUMPDEST PUSH2 0xBE PUSH2 0x172 JUMP JUMPDEST PUSH1 0x40 MLOAD PUSH2 0xCB SWAP2 SWAP1 PUSH2 0x1F9 JUMP JUMPDEST PUSH1 0x40 MLOAD DUP1 SWAP2 SUB SWAP1 RETURN JUMPDEST PUSH2 0xDC PUSH2 0x189 JUMP JUMPDEST PUSH1 0x40 MLOAD PUSH2 0xE9 SWAP2 SWAP1 PUSH2 0x1F9 JUMP JUMPDEST PUSH1 0x40 MLOAD DUP1 SWAP2 SUB SWAP1 RETURN JUMPDEST PUSH1 0x60 PUSH1 0x40 MLOAD DUP1 PUSH1 0x40 ADD PUSH1 0x40 MSTORE DUP1 PUSH1 0x6 DUP2 MSTORE PUSH1 0x20 ADD PUSH32 0x4C6565736F6C0000000000000000000000000000000000000000000000000000 DUP2 MSTORE POP SWAP1 POP SWAP1 JUMP JUMPDEST PUSH1 0x60 PUSH1 0x40 MLOAD DUP1 PUSH1 0x40 ADD PUSH1 0x40 MSTORE DUP1 PUSH1 0x7 DUP2 MSTORE PUSH1 0x20 ADD PUSH32 0x4B696D4A756E6700000000000000000000000000000000000000000000000000 DUP2 MSTORE POP SWAP1 POP SWAP1 JUMP JUMPDEST PUSH1 0x1 SLOAD DUP2 JUMP JUMPDEST PUSH1 0x0 PUSH1 0x1 SLOAD PUSH1 0x0 SLOAD PUSH2 0x184 SWAP2 SWAP1 PUSH2 0x230 JUMP JUMPDEST SWAP1 POP SWAP1 JUMP JUMPDEST PUSH1 0x0 SLOAD DUP2 JUMP JUMPDEST PUSH1 0x0 PUSH2 0x19A DUP3 PUSH2 0x214 JUMP JUMPDEST PUSH2 0x1A4 DUP2 DUP6 PUSH2 0x21F JUMP JUMPDEST SWAP4 POP PUSH2 0x1B4 DUP2 DUP6 PUSH1 0x20 DUP7 ADD PUSH2 0x290 JUMP JUMPDEST PUSH2 0x1BD DUP2 PUSH2 0x2F2 JUMP JUMPDEST DUP5 ADD SWAP2 POP POP SWAP3 SWAP2 POP POP JUMP JUMPDEST PUSH2 0x1D1 DUP2 PUSH2 0x286 JUMP JUMPDEST DUP3 MSTORE POP POP JUMP JUMPDEST PUSH1 0x0 PUSH1 0x20 DUP3 ADD SWAP1 POP DUP2 DUP2 SUB PUSH1 0x0 DUP4 ADD MSTORE PUSH2 0x1F1 DUP2 DUP5 PUSH2 0x18F JUMP JUMPDEST SWAP1 POP SWAP3 SWAP2 POP POP JUMP JUMPDEST PUSH1 0x0 PUSH1 0x20 DUP3 ADD SWAP1 POP PUSH2 0x20E PUSH1 0x0 DUP4 ADD DUP5 PUSH2 0x1C8 JUMP JUMPDEST SWAP3 SWAP2 POP POP JUMP JUMPDEST PUSH1 0x0 DUP2 MLOAD SWAP1 POP SWAP2 SWAP1 POP JUMP JUMPDEST PUSH1 0x0 DUP3 DUP3 MSTORE PUSH1 0x20 DUP3 ADD SWAP1 POP SWAP3 SWAP2 POP POP JUMP JUMPDEST PUSH1 0x0 PUSH2 0x23B DUP3 PUSH2 0x286 JUMP JUMPDEST SWAP2 POP PUSH2 0x246 DUP4 PUSH2 0x286 JUMP JUMPDEST SWAP3 POP DUP3 PUSH32 0xFFFFFFFFFFFFFFFFFFFFFFFFFFFFFFFFFFFFFFFFFFFFFFFFFFFFFFFFFFFFFFFF SUB DUP3 GT ISZERO PUSH2 0x27B JUMPI PUSH2 0x27A PUSH2 0x2C3 JUMP JUMPDEST JUMPDEST DUP3 DUP3 ADD SWAP1 POP SWAP3 SWAP2 POP POP JUMP JUMPDEST PUSH1 0x0 DUP2 SWAP1 POP SWAP2 SWAP1 POP JUMP JUMPDEST PUSH1 0x0 JUMPDEST DUP4 DUP2 LT ISZERO PUSH2 0x2AE JUMPI DUP1 DUP3 ADD MLOAD DUP2 DUP5 ADD MSTORE PUSH1 0x20 DUP2 ADD SWAP1 POP PUSH2 0x293 JUMP JUMPDEST DUP4 DUP2 GT ISZERO PUSH2 0x2BD JUMPI PUSH1 0x0 DUP5 DUP5 ADD MSTORE JUMPDEST POP POP POP POP JUMP JUMPDEST PUSH32 0x4E487B7100000000000000000000000000000000000000000000000000000000 PUSH1 0x0 MSTORE PUSH1 0x11 PUSH1 0x4 MSTORE PUSH1 0x24 PUSH1 0x0 REVERT JUMPDEST PUSH1 0x0 PUSH1 0x1F NOT PUSH1 0x1F DUP4 ADD AND SWAP1 POP SWAP2 SWAP1 POP JUMP INVALID LOG2 PUSH5 0x6970667358 0x22 SLT KECCAK256 NOT 0xFC 0xC1 0xE3 0x4C EXTCODECOPY DIFFICULTY 0x4B PUSH9 0x680199137D67FF7E20 0xAA 0xED 0xAB 0xC1 0xE1 PUSH18 0xFC2BCF0491450EEC64736F6C634300080700 CALLER "
				},
				"gasEstimates": {
					"creation": {
						"codeDepositCost": "165000",
						"executionCost": "44420",
						"totalCost": "209420"
					},
					"external": {
						"fatherMoney()": "2495",
						"getFatherName()": "infinite",
						"getMoney()": "infinite",
						"getMotherName()": "infinite",
						"motherMoney()": "2451"
					}
				},
				"methodIdentifiers": {
					"fatherMoney()": "d5312f35",
					"getFatherName()": "4fa4329d",
					"getMoney()": "98e1b410",
					"getMotherName()": "38477988",
					"motherMoney()": "95b386d1"
				}
			},
			"storageLayout": {
				"storage": [
					{
						"astId": 4,
						"contract": "lec12.sol:Son",
						"label": "fatherMoney",
						"offset": 0,
						"slot": "0",
						"type": "t_uint256"
					},
					{
						"astId": 24,
						"contract": "lec12.sol:Son",
						"label": "motherMoney",
						"offset": 0,
						"slot": "1",
						"type": "t_uint256"
					}
				],
				"types": {
					"t_uint256": {
						"encoding": "inplace",
						"label": "uint256",
						"numberOfBytes": "32"
					}
				}
			},
			"userdoc": {
				"kind": "user",
				"methods": {},
				"version": 1
			}
		}
	}
}